:10099B004210020000421004000042100600004109
:1009AB001008004110090141100A8041100B8042D0
:1009BB00100C000042100E000042101000004210FC
:1009CB001200014210144E20421016000142101862
:1009DB00000041101A0041101B0041101C00411077
:1009EB001D0041101E0041101F004110200041103E
:1009FB00210041102200411023004110240041101E
:100A0B0025004110260041102700411028004110FD
:100A1B00290041102A0041102B0041102C004110DD
:100A2B002D0041102E0041102F00411030004210BC
:100A3B0031000042103300004210350000421037E5
:100A4B0000004110390041103A0041103B004110A9
:100A5B003C0041103D0042103E000041104000415F
:100A6B00104100411042004110430041104400412D
:100A7B00104500411046004110470041104800410D
:030A8B001049000F
:03000B0002008070
:10008000C0E0C0F0C083C082C0D075D008758A516E
:10009000758CF8C28D901012E0FEA3E0FFEE339550
:1000A000E0FDFCF8F9AA0EAB0F7F607EEA7D007CD4
:1000B00000120E39901020EFF0907F9BE05410FF5B
:1000C000BF1003D38001C3920020003030012DD334
:1000D000901013E094F0901012E064809480400639
:1000E000901020E0A3F0901012E4F0A304F0901020
:1000F00021E0C3941E5050741EF0804B901012E407
:1001000075F0011207BDFED3E5F094D0EE64809443
:1001100087500320070F9010127407F0A374D0F0DB
:10012000901021E4F0D3901013E094F0901012E0BE
:10013000648094804011901021E0FF901020E0FE38
:10014000C39F5003A3EEF0A2009201907F9BE0209A
:10015000E56530033790100EE0FEA3E0FFD394F086
:10016000EE64809480404CEE3395E0FDFCF8F9AAF3
:100170000EAB0F7F607EEA7D007C00120E3990107E
:1001800022EFF090100EE4F0A3F0802790100EE420
:1001900075F0011207BD901010E475F0011207BD53
:1001A000FED3E5F09428EE648094804006901022FF
:1001B00074FFF0C2038036D203901010E4F0A3F075
:1001C00090100E75F0011207BDFED3E5F094D0EE4D
:1001D00064809487401790100E7407F0A374D0F0D9
:1001E000901022E4F0A3F09010267405F090100C0B
:1001F000E064017004A3E064F460030202889010DC
:1002000021E090101FF0120DD7901009E0FFC39469
:10021000175017901044E4F0907F96E054EFF09060
:100220001008E054FDF0D2098016901044740CF0D0
:10023000907F96E04410F0901008E04402F0C2096C
:10024000EFD3941B40069010447408F0901044E0E3
:10025000FFB40C189010497460F09010457410F0C1
:10026000A374FFF0A37448F0A374B3F0EFB40818BC
:10027000901049744EF090104574ECF0A374FFF0A8
:10028000A374D6F0A374C0F090100CE475F00112C2
:1002900007BDFED3E5F094E8EE648094835003023A
:1002A0000328901021E090101FF090100CE4F0A3B0
:1002B00004F0901009E4F020091A90101DE090104D
:1002C0001BF090101EE090101CF0A3E4F0A3F012BD
:1002D0000DD78054901014E0FEA3E0FFC394A0EE6D
:1002E0006480948F5029EEA2E713FEEF13FFEE33E4
:1002F00095E0FDFCF8F9AA0EAB0F7F147EFF7D00A0
:100300007C00120E39901018EEF0A3EFF0800790E9
:100310001018E4F0A3F0901018E0FCA3E0FDEC90BE
:10032000101CF090101BEDF090101BE0C3941450C3
:100330000CA3E07008A2069204C2078004C204D293
:1003400007200538200435901027E004F0D39409E5
:10035000402AE4F0A3E004F0D39463401FE4F0A348
:10036000E004F07017A3E004F07011A3E004F07053
:100370000B74FFF090102AF0901029F030096130D2
:100380000A24901016E0FEA3E0FFD3944BEE6480A5
:1003900094804008901014EEF0A3EFF0901016E453
:1003A000F0A304F0C20AC3901017E09470901016E6
:1003B000E0648094975029E475F0011207BD901015
:1003C00014E0FEA3E0FFA3E0FCA3E0FDD39FEE64F6
:1003D00080F8EC6480984008901014ECF0A3EDF0E5
:0D03E000C208D0D0D082D083D0F0D0E0325F
:03001B00020ED5FD
:100ED500C0E0C083C082C28FC28EC2AB907F98E053
:100EE5004480F0901042E0F5CCA3E0F5CDC2CFD21E
:0A0EF500CAD2ADD082D083D0E03223
:03002B00020F467B
:100F4600C0E0C083C082C2CF75CC0075CD00907F53
:0C0F560098E0547FF0D082D083D0E032CD
:03000300020F24C5
:100F2400C0E0C083C082300904D20A800C90101D36
:100F3400E004F07004A3E004F0C289D082D083D02E
:020F4400E03299
:03001300020CB824
:100CB800C0E0C083C082C0D075D00830076E9010E5
:100CC8000AE0FFD394804010901045E0F58BA3E034
:100CD800F58DC28FD28ED2ABEFC394805010901096
:100CE80047E0F58BA3E0F58DC28FD28ED2AB901082
:100CF8000BE0FEC39F5016C3EF9EC39405500790A8
:100D0800100AEEF0800790100AE024FBF090100A19
:100D1800E0FFEED39F401BC3EE9FC394055004EE43
:100D2800F0800F90100AE02405F0800690100A74F5
:100D380080F0901009E004F0C28BD0D0D082D0832C
:030D4800D0E032C6
:100F9A007F187E010FBF00010EEF1F70011EEF1FA9
:090FAA00AC0670011E4C70EC2233
:100FB300AB07AA06EB1BAE0270011A4E6005120FB7
:040FC3009A80F122FD
:100DD70090100AE0FDD3947F4021ED2480FF90100E
:100DE70049E0FEEF8EF0A4FFAEF0C374FA9F9010B7
:100DF70003F074FF9E901002F08020C374809DFF63
:100E0700901049E0FEEF8EF0A4FFAEF0C374FA9F96
:100E1700901003F074FF9E901002F0C2AF90100282
:100E2700E0FCA3E0FDEC901043F0901042EDF0D20F
:020E3700AF22E8
:100C1F00901022E0F9C3941E4006E9D394FA4008DD
:100C2F009010267405F08078901024E0FFE9D39F90
:100C3F004007C3E99FA3F08007C3EF99901025F0F9
:100C4F00901025E0C3940A5057A3E07045901023ED
:100C5F00E0FFE9D39F4009C3E99F901025F080077B
:100C6F00C3EF99901025F0901025E0C39428501AE7
:100C7F00E9D39F4006901023E004F0901023E0FF8B
:100C8F00E9C39F501BE014F080169010267405F0F6
:100C9F00800E901026E014F07006901022E0A3F062
:090CAF00901022E0901024F022C4
:100A8F008F16A905901006E07002A3E06005D2084A
:100A9F002008FDD208E4901006F0A3F0C28CAF8AB4
:100AAF00901004E0FCA3E4EC901004F0EFA3F0AF7F
:100ABF008CEFFEE4E0FDEE901004F0EDA3F0D28C8D
:100ACF00907F9DE516F030082F907F9AE05960F6E1
:100ADF00C28CAF8A901006E0FCA3E4EC901006F0F5
:100AEF00EFA3F0AF8CEFFEE4E0FDEE901006F0ED1B
:100AFF00A3F0D28CC20880CE907F9D740FF090101F
:100B0F0006E0FEA3E0FF4E700990103EF0A374FFC5
:100B1F00F022901004E0FCA3E0FDC3EF9DFFEE9CDC
:100B2F00FE90103EF0A3EFF0D39BEE9A4018C3E077
:100B3F009BFF90103EE09AFE7C007D05120768EE49
:100B4F00F0A3EFF08007E490103EF0A3F0D39010E5
:100B5F003FE094FF90103EE094004006E4F0A37451
:030B6F00FFF02272
:1003ED00120B72E4907FC9F0D205907F9BE020E55F
:1003FD0020907F99E020E503120C1F907F99E04437
:10040D0020907F96F0901008E04401F0E490101ACF
:10041D00F090101AE004F0D39414400A907F99E004
:10042D0054DF907F96F0901006E4F0A304F07F0760
:10043D007D087B0EFA120A8F90103FE0FFC374FF08
:10044D009F90102DF07F0B7D047B18120A8F90105A
:10045D003FE0FFC374FF9F90102EF07F0D7D0212C1
:10046D000A8F90103FE0FFC374FF9F90102FF07F15
:10047D000E7D01120A8F90103FE0FFC374FF9F9015
:10048D001030F090103DE0FF04F0EFC39404503BAA
:10049D0090102DE0FF901031E48FF01207BD9010F9
:1004AD002EE0FF901033E48FF01207BD90102FE077
:1004BD00FF901035E48FF01207BD901030E0FF90E3
:1004CD001037E48FF01207BD02055F901032E02463
:1004DD0002FF901031E03400FEEF7802CEC313CE50
:1004ED0013D8F9901039F0901034E02402FF9010D9
:1004FD0033E03400FEEF7802CEC313CE13D8F9905B
:10050D00103AF0901036E02402FF901035E03400E0
:10051D00FEEF7802CEC313CE13D8F990103BF090B6
:10052D001038E02402FF901037E03400FEEF78021F
:10053D00CEC313CE13D8F990103CF0E4901031F0E7
:10054D00A3F0A3F0A3F0A3F0A3F0A3F0A3F09010F9
:10055D003DF0300214907F9BE020E40D901050E0B0
:10056D00641060057410F0C202300214907F9BE09D
:10057D005410FFBF100A901050E06004E4F0C20266
:10058D00907F9BE05440FFBF40047F0180027F00BD
:10059D00EF25E025E0FF907F9BE054032FFF9010A7
:1005AD0050E02F90102CF0907FC8E030E103020650
:1005BD0049907DC0E090100BF0907FC9E0D394017D
:1005CD004011907DC1E0139205E0A2E19204E0A2FA
:1005DD00E29206907FC9E0D394024008907DC2E07C
:1005ED0090102BF0907FC9E0D394034008907DC309
:1005FD00E090102AF0907FC9E0D394044008907DDC
:10060D00C4E0901029F0907FC9E0D3940540089084
:10061D007DC5E0901028F0E4907FC9F090102BE09C
:10062D00907E05F090102AE0907E06F0901029E063
:10063D00907E07F0901028E0907E08F0907FB8E053
:10064D0030E1030203F7907F9AE054F0FF90100819
:10065D00E0FE2FFF901044E02F907E00F090101BD5
:10066D00E0907E01F090101CE0907E02F090101F43
:10067D00E0907E03F0901023E0907E04F090102B1C
:10068D00E0907E05F090102AE0907E06F090102903
:10069D00E0907E07F0901028E0907E08F090100A10
:1006AD00E0907E09F090102CE0907E0AF0901039C9
:1006BD00E0907E0BF090103AE0907E0CF090103BA5
:1006CD00E0907E0DF090103CE0907E0EF090104288
:1006DD00E0907E0FF0901043E0907E10F090104A65
:1006ED00E0907E11F090104BE0907E12F090104C47
:1006FD00E0907E13F0A3741AF0EE5402901008F0FF
:0C070D00907FB97415F0D2020203F722AD
:060EFF008D168A178B1806
:100F0500901000EFF0E4A3F07F507D017A107B0094
:0E0F1500120F7E7F50AD16AB18AA17120F6296
:010F230022AB
:100B7200907F957430F0907F9CF0907F9D740FF081
:100B8200907F9E7480F0907F967430F0E4907F970F
:100B9200F0907F98F07FF47E01120FB3E4907F967D
:100BA200F07FF47E01120FB390100A7480F0C20736
:100BB200D2A8D288D2AAD28A758911758A51758C27
:100BC200F8D28CD2A9C2B9758B48758DB3C28EC2C8
:100BD200ABD2BB901042E0F5CCA3E0F5CDE4F5CA70
:100BE20075CBFEC2CAC2ADD2BDD2AF120FC77F0D46
:100BF2007D037A107B4D120EFF90104DE090104A4B
:100C0200F090104EE090104BF090104FE090104C8E
:0D0C1200F09010267405F0E4901050F022D0
:080FC700E4F515D2E9D2AF22D6
:100EAA00A907E5157023907FA5E04480F0E925E0C5
:100EBA00907FA6F08D10AF03A9077511018A1289D8
:0B0ECA0013E4F514751501D322C322B8
:100E7D00A907E5157025907FA5E04480F0E925E0F0
:100E8D004401907FA6F08D10AF03A9077511018A5B
:0D0E9D00128913E4F514751503D322C32246
:03004B000208A107
:1008A100C0E0C083C082C085C084C086758600C098
:1008B100D0C000C001C002C003C006C007907FA520
:1008C100E030E20675150602097D907FA5E020E182
:1008D1000CE5156402600675150702097DAF15EF79
:1008E10024FE605814602F24FE700302097324044F
:1008F100600302097DAB11AA12A913AF1405148F6D
:1009010082758300120719907FA6F0E514651070B7
:100911006B7515058066907FA6E0AB11AA12A9132D
:10092100AE148E82758300120746751502E51064B8
:10093100017049907FA5E04420F08040E51024FE3D
:10094100B51407907FA5E04420F0E51014B5140A12
:10095100907FA5E04440F0E4F515907FA6E0AB114F
:10096100AA12A913AE148E827583001207460514CC
:10097100800A907FA5E04440F0E4F5155391DFD063
:1009810007D006D003D002D001D000D0D0D086D07D
:0A09910084D085D082D083D0E032FC
:100F6200120E7DE51524FA600E146006240770F354
:0C0F7200D322E4F515D322E4F515D322B8
:100F7E00120EAAE51524FA600E146006240770F30B
:0C0F8E00D322E4F515D322E4F515D3229C
:03000000020D4BA3
:0C0D4B00787FE4F6D8FD758121020D923E
:10071900BB010CE58229F582E5833AF583E0225095
:1007290006E92582F8E622BBFE06E92582F8E222DF
:0D073900E58229F582E5833AF583E49322F9
:10074600F8BB010DE58229F582E5833AF583E8F0E9
:10075600225006E92582C8F622BBFE05E92582C895
:02076600F2227D
:10076800BC000BBE0029EF8DF084FFADF022E4CC75
:10077800F875F008EF2FFFEE33FEEC33FCEE9DEC3E
:10078800984005FCEE9DFE0FD5F0E9E4CEFD22ED84
:10079800F8F5F0EE8420D21CFEADF075F008EF2FCE
:1007A800FFED33FD4007985006D5F0F222C398FDBF
:0507B8000FD5F0EA225C
:1007BD00C5F0F8A3E028F0C5F0F8E58215827002C7
:0607CD001583E038F02264
:100E3900C2D5E830E70FB2D5E4C39BFBE49AFAE4E4
:100E490099F9E498F8EC30E717B2D5120E6F120849
:100E59000FE4C39BFBE49AFAE499F9E498F8800358
:100E690012080F30D50DE4C39FFFE49EFEE49DFDFB
:040E7900E49CFC22D7
:100D57000203EDE493A3F8E493A34003F68001F2C2
:100D670008DFF48029E493A3F85407240CC8C3339D
:100D7700C4540F4420C8834004F456800146F6DF6C
:100D8700E4800B010204081020408090099BE47E58
:100D9700019360BCA3FF543F30E509541FFEE49361
:100DA700A360010ECF54C025E060A840B8E493A328
:100DB700FAE493A3F8E493A3C8C582C8CAC583CA53
:100DC700F0A3C8C582C8CAC583CADFE9DEE780BE0B
:010A8E000067
:1007D30075F008758200EF2FFFEE33FECD33CDCCDD
:1007E30033CCC58233C5829BED9AEC99E582984060
:1007F3000CF582EE9BFEED9AFDEC99FC0FD5F0D63D
:10080300E4CEFBE4CDFAE4CCF9A88222B800C1B966
:100813000059BA002DEC8BF084CFCECDFCE5F0CBA4
:10082300F97818EF2FFFEE33FEED33FDEC33FCEBDD
:1008330033FB10D703994004EB99FB0FD8E5E4F998
:10084300FA227818EF2FFFEE33FEED33FDEC33FC85
:10085300C933C910D7059BE99A4007EC9BFCE99A79
:10086300F90FD8E0E4C9FAE4CCFB2275F010EF2FBE
:10087300FFEE33FEED33FDCC33CCC833C810D707BE
:100883009BEC9AE899400AED9BFDEC9AFCE899F8F9
:0E0893000FD5F0DAE4CDFBE4CCFAE4C8F9228C
:00000001FF
