:0919BE001202DF9020890202C729
:0D1984008F268D27907F96E04420F080F79D
:0919B500E54930E0031214492257
:011A3500228E
:0612D9008D258A268B27FB
:1012DF009020BDEFF0E4A3F07A207BBD7D017F501D
:0E12EF001217FFAB27AA26AD257F500217E38A
:1008E8001219D07A207BB47D037F0D1212D9902083
:1008F800B4E0FF7E00902091EEF0A3EFF0121A0012
:10090800902091EEF0A3EFF09020B6E0FFE4FCFD1C
:10091800FE78081202B4A804A905AA06AB0790201D
:10092800B5E0FFE4FCFDFE1202839020891219BE97
:100938009020BBEEF0A3EFF01209DE78101202B49B
:100948009020B71219BE78101202A19020BBEEF0C9
:10095800A3EFF09020B71202D3C000C001C002C0BC
:10096800039020BBE0FEA3E0FF1209DED003D00213
:10097800D001D0001202839020B71202DF9020B776
:100988001202C79020891202DF9020BB7401F0A3E5
:100998007408F0FF7E01121A00E4FCFD78101202C0
:1009A800B490208D1202DFE49020BBF0A3F09020D9
:1009B8008D1202D3C000C001C002C003E4FFFE12C2
:1009C8001A00E4FCFDD003D002D001D0001202834B
:0609D80090208D0202DFF9
:0709DE00121A00E4FCFD22E7
:10117900907FA1E04401F0121A3512189A1217064D
:1011890012178712122F1216A612111C121494127A
:1011990008E8E54954FEF54912151E1216098E474D
:1011A9008F48D2AFD2061213AA538EF8E5494401EB
:1011B900F54910040280FB120BB71219C71213FB71
:0B11C900120C79120F6C1209E580E790
:10189A00E58E4420F58EE58E4410F58EAF8EEF541A
:0618AA00F7F58E7F00221D
:03002B000211D4EB
:1011D400C0E0C0F0C083C082C0D075D000C000C0E1
:1011E40001C002C003C004C005C006C007C2CFC20C
:1011F400AF053FE53F7002053ED2AF1219B5D542A7
:101204000A7542053004020541D20430CF0205407C
:10121400D007D006D005D004D003D002D001D0002E
:0B122400D0D0D082D083D0F0D0E032D8
:06160900E54A24FCF54A4D
:10160F00D310AF01C3E433A84A0808760008F6A840
:10161F004AA63E08A63FA84A0808E6FE08E64E245A
:03162F00FF92AF78
:07163200A84AE6FE08E6FFEE
:07163900E54A2404F54A22F2
:10191500AF8CAD8AEFB58CF8FE7C00E42DFFEC3E74
:01192500FEC3
:01192600229E
:10151E00E4F53EF53FF540F541C204754205C2CAF9
:10152E00C2CFC2CDC2CCC2CBC2C9C2C875CBD175D7
:10153E00CA2075CDD175CC20C2BDD2ADD2CAC28C57
:0D154E004389015389FD5389FBD28CFF2294
:10170600907F93E054DFF0907F9CE04420F0907F40
:1017160096E054DFF0907F93E054EFF0907F9CE0EA
:0D1726004410F0907F96E054EFF07F002219
:0713AA00907FD6E04408F03B
:0313B100E4F5253B
:0413B400E054FBF016
:0313B800E4F52534
:1013BB00E04408F0300604E04402F07FDC7E0512C6
:1013CB00175E907F92E030E3077FDC7E0512175E9D
:1013DB00907FAB74FFF0907FA9F0907FAAF05391B0
:0813EB00EF907FD6E054F7F00B
:0313F300E4F525F9
:0513F600E04404F022B8
:0819D000E4F51FD2E9D2AF22B9
:1015D100AD07907FA5E020E6F9C2E9907FA5E04440
:1015E10080F0ED25E0907FA6F0907FA5E030E0F956
:1015F100907FA5E04440F0907FA5E020E6F9907F40
:08160100A5E030E1D6D2E92298
:10167400AC07907FA5E020E6F9E51F7023907FA5D5
:10168400E04480F0EC25E0907FA6F08D1AAF03A92A
:1016940007751B018A1C891DE4F51E751F01D322E1
:0216A400C3225F
:10164000AC07907FA5E020E6F9E51F7025907FA507
:10165000E04480F0EC25E04401907FA6F08D1AAFC5
:1016600003A907751B018A1C891DE4F51E751F035C
:04167000D322C3229C
:03004B000207E0C9
:1007E000C0E0C083C082C085C084C086758600C05A
:1007F000D075D000C000C001C002C003C006C00751
:10080000907FA5E030E206751F060208CA907FA51A
:10081000E020E10CE51F64026006751F070208CAAC
:10082000E51F24FE605F14603624FE70030208BBDF
:1008300024FC70030208C7240860030208CAAB1B2B
:10084000AA1CA91DAF1E051E8F8275830012018F81
:10085000907FA6F0E51E651A7070751F05806B907D
:100860007FA6E0AB1BAA1CA91DAE1E8E827583005D
:100870001201CE751F02E51A6401704E907FA5E04B
:100880004420F08045E51A24FEB51E07907FA5E0C0
:100890004420F0E51A14B51E0A907FA5E04440F00C
:1008A000751F00907FA6E0AB1BAA1CA91DAE1E8E73
:1008B000827583001201CE051E800F907FA5E04453
:1008C00040F0751F008003751F005391DFD007D0E3
:1008D00006D003D002D001D000D0D0D086D084D0B2
:0808E00085D082D083D0E03204
:1017E300121640E51F24FA600E146006240770F3F6
:0C17F300D322E4F51FD322E4F51FD3221B
:1017FF00121674E51F24FA600E146006240770F3A6
:0C180F00D322E4F51FD322E4F51FD322FE
:10175E008E268F27907F92E030E30BE52725E0F56C
:10176E0027E52633F526E5271527AE267002152622
:09177E004E600512192780EE22CD
:101927007400F58690FDA57C05A3E582458370F9D3
:01193700228D
:100DC600AF09AE08121A00902099EEF0A3EFF0AF2B
:100DD6000BAE0A121A00A3EEF0A3EFF0AF0DAE0CA5
:100DE600121A00A3EEF0A3EFF0AF0FAE0E121A0028
:100DF600A3EEF0A3EFF022907FECE0F45480C4540D
:100E06000FFFE054072F25E024B4F582E4347FF584
:100E1600832278007C7E7D017B017A2079897E00A1
:100E26007F180201505391EF907FAB22AA06A907C3
:100E36007B018B258A268927EA494B22907F00F081
:100E4600907FB57401F0D322907F00F0E4A3F09078
:030E56007FB52243
:071A0000AC06EFAF04FE226B
:1013FB00907FB8E020E144120DC69020BFA3E0908F
:10140B002096F09020A7E0902097F09020A1A3E0E9
:10141B00902095F0120E1875251874002525F9E407
:10142B00347EFA7B0112104CEF2525F525D3944021
:0D143B004003752540907FB9E525F07F0046
:011448002281
:1017C600907FDEE04404F0907FDFE04404F0E49094
:0D17D6007FC9F0907FADE04404F0D2002206
:021A2B00D322C4
:0819D800907FEAE0F537D3220D
:061A1500E537120E42222B
:0819E000907FEAE0F532D3220A
:061A1B00E532120E42222A
:021A2D00D322C2
:021A2F00D322C0
:021A3100D322BE
:021A3300D322BC
:1018B000C0E0C083C082D201120E2B7401F0D0822E
:0518C000D083D0E032EE
:1018EF00C0E0C083C082120E2B7404F0D082D0836C
:0318FF00D0E03204
:10190200C0E0C083C082120E2B7402F0D082D0835A
:03191200D0E032F0
:10186A00C0E0C083C082907FC9E4F0120E2B7410CE
:08187A00F0D082D083D0E032EF
:011A3600327D
:1018C500C0E0C083C082D203120E2B7408F0D08210
:0518D500D083D0E032D9
:011A3700327C
:100EE500C0E0C0F0C083C082C0D075D000C000C0D3
:0D0EF50001C002C003C004C005C006C00754
:100F02001219764041D205907FC9E0F522907F9672
:100F1200E04410F0752300E523C39522501F74C0EE
:100F22002523F582E4347DF583E0FFE52325E00403
:100F3200FD12181B0523E523C3942040DAE523257F
:0F0F4200E004FF1212845391EF907FAA7404F021
:100F5100D007D006D005D004D003D002D001D000F4
:0B0F6100D0D0D082D083D0F0D0E0329E
:011A3800327B
:10037100907FE9E012031904C900050F01055C0330
:1003810003940604C30804BD0904B10A04B70B00B1
:1003910000058A121A2B4003020596907FEBE02498
:1003A100FE601414602E240260030204AEE5339053
:1003B1007FD4F0E5348013907FEAE0FF1214DD1260
:1003C1000E32600DEE907FD4F0EF907FD5F00205F4
:1003D1009602058F907FEAE0FF121733120E3270FA
:0403E100030204AB64
:1003E500AB258B2C8A2D892E120176F52F907FEE69
:1003F500E0FFE52FD39F4003E0F52FE52F700302C3
:1004050004A0E4F52BF52AF529F528E52FC394403A
:100415005004AF2F80027F40E4FCFDFEAB2BAA2ADF
:10042500A929A828C31202905035E52E252BF5825F
:10043500E52D352AF583E0FF7400252BF582E4349C
:100445007FF583EFF0E52B2401FFE4352AFEE43543
:1004550029FDE435288F2B8E2A8D29F52880ACE5DA
:100465002FC394405004AF2F80027F40907FB5EF9B
:10047500F0E52FC394405004AF2F80027F40C3E5C1
:100485002F9FF52F7440252EF52EE4352DF52D9053
:100495007FB4E020E20302040080F4E4907FB5F02D
:0304A500907FB491
:1004A80002050602058F02058F121A1B0205961215
:1004B80019E00205961219D8020596121A150205B6
:1004C80096121A2D4003020596907FE8E0247F607B
:1004D800181460212402702CA200E43325E0FFA246
:1004E80002E4334F120E4E8015E4907F00F0A3F023
:1004F800907FB58009120DFDE05401120E4E740272
:10050800F002059602058F121A2F400302059690F5
:100518007FE8E024FE601324027073907FEAE0B461
:100528000105C20002059602058F907FEAE070225D
:10053800120DFDE4F0907FECE05480131313541F68
:09054800FFE054072F907FD7F06B
:03055100E4F52CA2
:10055400E04420F0803C8033121A315035907FE81B
:10056400E024FE601124027029907FEAE0B40104C3
:10057400D200801E8015907FEAE07008120DFD7491
:1005840001F0800E8005121A335007907FB4E044C6
:0905940001F0907FB4E04402F094
:01059D00223B
:0919C700300105120371C2012276
:10122F00C203C200C202C2019020957410F0A374D1
:10123F00AAF0E4A3F0A3F07533107534BA75351026
:10124F007536CC753C10753DEC1217C6D2E843D8F5
:10125F0020907F95E044C0F0907FAFE04401F09084
:10126F007FAEE0441DF0120DC6120E18907FB974B8
:05127F0018F07F0022C1
:0819E800E51025E02412F822AD
:100BB700AF107408A807088002C313D8FCF52AF4FD
:100BC700540FF529E4F527F528C2051219158E25C6
:100BD7008F26907F9DE529F07527077528D0121974
:100BE70015C3EF9526FFEE9525FEC3EF94D0EE943F
:100BF700075016907F9AE0552A60E3121915C3EF44
:100C07009526F528EE9525F527907F9D740FF02002
:100C17000553D3E52894D0E527940750481219E8DF
:100C2700E6FE08E6FDAC067802CEC313CE13D8F96C
:100C3700FFC3ED9FFDEC9EFCE5282DFFE5273CFE5D
:100C47001219E8A60608A6071219E8E6FE08E678CC
:100C570002CEC313CE13D8F9FFE51025E02408F818
:100C6700A60608A6070510E510D394034003E4F58C
:010C7700106C
:010C78002259
:10178700E4FFEF25E02412F8E4F608F60FBF04F2B1
:10179700907F9D740FF0E4907F97F0F510F511FF9F
:0117A700221F
:1010BA0012010001000000406135421901000102DD
:1010CA00000109022000010100A000090400000239
:1010DA00FF000000070582024000000705020240E7
:1010EA00000004030904100354006100630078003F
:1010FA002000620076001A03540061006300780041
:10110A00200046006F0072007400690075007300C9
:02111A000000D3
:03004300021300A5
:101300000218B000021902000218EF000218C5000E
:1013100002186A00021A3600021A3800021A38004F
:10132000021A3800021A3800021A3700020EE500CD
:10133000021A3800021A3800021A3800021A38005D
:10134000021A3800021A3800021A3800021A38004D
:08135000021A3800021A3800ED
:0C199E00FF1A39FF12FDFF1A3AFF1A076A
:1017A800FF121851AE050D74022EF582E43420F5AF
:0E17B80083EFF022902042E475F00102025708
:1018510053070FEFC39400400BEFD394095005EFEA
:091861002430FF22EF2437FF229E
:05155B00FC12018FFFEE
:10156000EFC39430400BEFD394395005EF24D0FFF4
:1015700022EFC39441400BEFD394465005EF24C9AA
:10158000FF22EFC39461400BEFD394665005EF2424
:06159000A9FF227F0022EA
:1015960090000312155CEF7D0090000212155BEFC0
:1015A600C454F0FEED2400FDEE3CFC120176FF1261
:1015B6001560EF75F010A42DFDE5F03C90000112CA
:0A15C600155B7E00ED2FFFEE3CFEEA
:0115D00022F8
:061A2100902044E0FF22CA
:10181B00AE07EEC4540FFF121851AC050D74022C19
:0B182B001217B2AF061217A9AF05227A
:1016D800AB07AA06EB7804CEA2E713CE13D8F8120C
:1016E80017A8AF031217A9EBAE02780CCEA2E71326
:0E16F800CE13D8F81217A8EA1217A8AF0522D1
:0E197600309909121A21BF0103D38001C32248
:021284008F24B5
:10128600E524D3944040037FF6229020027401F0B7
:10129600AF24154A154AA84A760008A607FB7A2005
:1012A60079027E007F0012059EAD241216D88F2487
:1012B60074022FF582E43420F5837417F0E490204D
:1012C60042F0A3F0A304F01217BC902002E0F599B7
:0212D6007F0097
:0112D80022F3
:0D199100E4902085F0A3F0A3F0D29CFF228B
:03002300020AD8F6
:100AD800C0E0C0F0C083C082C0D075D000C000C0E4
:070AE80004C005C006C007B1
:100AEF00209806209903020BA230993C902044E0F5
:100AFF006034902042E0FEA3E0FF2402F582E4344C
:100B0F0020F583E0FDC3EF943FEE940050031217DE
:100B1F00BCBD1710902044E4F0907FC9F0907F96F1
:100B2F00E054EFF08D99C2993098B5AF9990208726
:100B3F00E064026059EF24E96010241670149020CD
:100B4F0085E4F0A3F0A304F080089020877402F0EE
:100B5F00C29CC3902086E09436902085E09400508C
:100B6F0017E475F00112026DFC744525F0F58274DF
:100B7F00203CF583EFF08016902087E06402600E32
:100B8F0074FEF0902085E4F0A37436F0C29CC298F6
:030B9F00020AEF58
:100BA200D007D006D005D004D000D0D0D082D083D8
:050BB200D0F0D0E0329C
:10135800902085E0FEA3E0FFC3940EEE94005002B7
:10136800C322EF24FBFFEE34FF154A154AA84AF6BC
:1013780008A6077B017A2079457E007F0012059E2A
:101388008E268F27902085A3E02440F9E43420FAA4
:101398007B01121596EFB52707EEB52603D380011A
:0113A800C381
:0113A9002221
:06104C008B268A2789288B
:10105200E4FE902088E0605D902085A3E024FBD32D
:101062009431504C7D01EDC39431504474452DF5BB
:1010720082E43420F583E0FF121560EFC454F0FCE3
:1010820074462DF582E43420F583E0FF121560EFFB
:101092002CFF7826E475F0011202F4EF1201BCEE87
:1010A200C3941850030E8004E4FE80040D0D80B634
:0710B200E4902088F0AF0676
:0110B9002214
:011A3900228A
:0312FD0002199142
:011A3A002289
:071A07009020887401F02219
:100C79007525FF902001E014600C14602E1460604B
:100C8900240370678060902087E0FF64016004EFAF
:100C9900B40205752502805AC3EF648094805052CE
:100CA900902097EFF0A3E004F0803B902087E0B418
:100CB90002141213585005752503803675250190C5
:100CC900209774FB8013902087E0FFC36480948091
:100CD9005020752501902097EFF0A3E004F08012D1
:100CE900902088E0700C75250180077DFE7F010248
:100CF9001984E525F4602BE525C394045017E525EF
:100D090075F003A4249EF582E43419F58312030DCA
:100D190012033F80077DFD7F01121984902001E5B0
:020D290025F0B3
:010D2B0022A5
:1016A600907F957403F0E4F5C8758920758DEC4339
:1016B6008780438E10D28E759840D2ACD2BCFE7F06
:1016C60089FD7B017A207900120345E4902088F099
:0216D600FF22F1
:101938000001010001000001010000010001010097
:10059E00154A154A154AA84A120304154A154AA8BF
:0C05AE004AA60608A607E54A24FBF54A09
:1005BA002407F81202EBA84A0808120304E54A24A1
:1005CA000AF909E7194770030206AEA84A08081291
:1005DA0002EB120176FFE54A2405F8E6FC08E6FD7F
:1005EA00EF6DA84A760008F6A84A080808087401B8
:1005FA0026F618E436F6E54A2405F8ECFF760008F4
:10060A00A607A84AE6FC08E6FDECC4F854F0C86858
:10061A00FEEDC4540F482438F58274193EF583E47C
:10062A0093FF7C00ED540F2438F582EC3419F583DE
:10063A00E4936F600EE54A2405F874C066F6740107
:10064A000866F6A84AC000A900E7FE09E77806C3CB
:10065A0033CE33CED8F9D000A60608F6E54A2405EB
:10066A00F9A84AE6FE08E6FFEE67F7EF0967F7A87A
:10067A004AEF25E0FFEE33F608A607E54A2405F817
:10068A00C000F9A84AE766FE09E70866D000A60690
:10069A0008F6E54A240AF808E6161860030205C7B0
:0E06AA00160205C7E54A2405F8E6FE08E6FF3D
:0706B800E54A240CF54A227B
:061A0E0004430202020283
:0B19AA0074C32CF582E43420F5832286
:10188200907F9AE054F0FFE4C4F854F0C868FEEF89
:07189200C4540F48640FFF6E
:01189900222C
:100F6C009020BFE0F525A3E0F5261218828E278F7E
:100F7C00287F017E00E4FC1219AAE0FD74432CF8D2
:100F8C00E6F9EDD3995049E5275EFAE5285F4A600A
:100F9C0010EDC39950030D801DEF4226EE422580C3
:100FAC0015EDD3940040031D800CEFF4FBEEF4FA26
:100FBC00EB5226EA52251219AAEDF0EF25E0FFEECE
:100FCC0033FE0CBC04B19020BFE525F0A3E526F060
:010FDC0022F2
:10111C00907F94E0540FF0907F9DE0540FF0907FFF
:10112C0097E0540FF01218828E258F26E49020C180
:10113C00F0A3F09020BFE525F0A3E526F07F017E1B
:10114C0000E4FDE5255EFAE5265F4A600874432D50
:10115C00F8E6FC80027C0074C32D1219ADECF0EFA4
:0C116C0025E0FFEE33FE0DBD04D97F002E
:011178002254
:10183600FF1A3BFF18DAFF1948FF1958FF1967FF0F
:0B1846001A27FF06BFFF0D2CFF19F84A
:100FDD007C009020ADE0FEA3E0FF1201F0C3E527F9
:100FED009FE5269E22F09020A9E0FFA3E0A3CFF07D
:100FFD00A3EF229020ADE0FEA3E0FF7C0022902025
:10100D00ABE0FEA3E0FFC39020AAE09FFF9020A9D4
:10101D00E09EAB07FA22E0FCA3E0FDC3EF9DFFEEDF
:10102D009CFED3EF229020A1EEF0A3EFF022F090E2
:0F103D0020B17406F0227C00AF03AE020201F076
:10144900907F9BE054206420F5219020B1E0FF704B
:1014590008E52160357401F022EFC39405501FE5BA
:101469002160159020B1E004F0B4051E1216099010
:1014790020A9EEF0A3EFF022E49020B1F022902011
:0A148900B1E0B40605E5217001F0A2
:011493002236
:0819F000E49020A3F0A3F02213
:10149400E49020AF12103BE49020ADF0A3F0902034
:1014A400A1F0A3F01219F0E49020A7F0907F95E04A
:1014B40054CFF0907F9EE054CFF0907F98E054CFCB
:1014C400F0907F93E054DFF0907F9CE04420F09014
:0914D4007F96E054DFF07F002256
:011A3B002288
:1018DA00E49020ADF0A312103B1216099020A9EE55
:0518EA00F0A3EFF02265
:10194800120FF3F0E49020B3F09020B27402F0226A
:0F1958009020A7E04402F0907F96E04420F02218
:0F1967009020A7E054FDF0907F96E054DFF0222F
:041A270012103C223B
:1006BF0012100BEB25E0FFEA33FEC3EF9458EE94D4
:1006CF001B40030207707D091210438E268F277D72
:1006DF0007120FDF5002803F1210007D0B1201F046
:1006EF00D3120FEB50030207779020ADE0FEA3E08B
:1006FF00FF7D0F120FE75002801D7D15120FDD5089
:10070F000F9020B3E004F0EAC313FAEB13FB802F32
:10071F007D18120FDD50079020B07405F0221210D3
:10072F00007D1E120FE750159020B3E004F07D03FB
:10073F00AF03AE02120202AA06AB0780028022901C
:10074F0020B3E0D3940240289020A1E0FEA3E0FF65
:10075F00D394A0EE94004009EE13FEEF13FF121096
:10076F00329020B07401F0229020B3E0600214F0B8
:10077F001210007D031201F0EF2BFFEE3ACF24028F
:10078F00CF3400FEEF7802CEC313CE13D8F9FF900B
:10079F0020ADEEF0A3EFF09020ADE0FCA3E0FDEC78
:1007AF00C313FEED132430FFEE3475FE1202021256
:1007BF001032C39020A4E09F9020A3E09E5007909A
:1007CF0020A1120FF6F0120FF3F09020B07403F087
:0107DF0022F7
:100D2C0012100BC3EB9482EA9400405BD3EB94E873
:100D3C00EA9403400280509020ADE07002A3E07072
:100D4C00129020ADEAF0A3EB120FF2F09020B2E07B
:100D5C0014805F7D051210438E268F279020ADE006
:100D6C00FEA3E07802C333CE33CED8F9FFC3E52718
:100D7C009FE5269E40111210007D061201F0D3E56E
:100D8C00279FE5269E40079020B07401F02290200A
:100D9C00AEE02BFF9020ADE03ACF2401CF3400C35E
:100DAC0013FEEF13FFEEF0A3EFF09020B2E014125D
:090DBC000FF2F09020B07403F076
:010DC500220B
:0819F800E49020A1F0A3F0220D
:1009E5007525FF9020AFE01203190A0E000A1101C8
:1009F5000A2A020A30030A3F040A54050A7E060A37
:100A05007E070A860800000A8B020A799020B1E069
:100A1500B40506752502020A92120AC394C4EE941F
:100A250009406A804F752503020A92120AC394325F
:100A3500EE9400405875250480531216099020A99C
:100A45001210239478EE94004043752505803E905E
:100A550020B1E0B4050EA3E07005752506802E755E
:100A6500250780291216099020AB12102394C4EE95
:100A75009409401975250880149020B0E0F525806B
:100A85000C75250180077DFE7F05121984E525F487
:100A9500602BE525C394095017E52575F003A424BB
:100AA50036F582E43418F58312030D12033F8007EF
:0D0AB5007DFD7F051219849020AFE525F02E
:100AC200221216099020A9E0FCA3E0FDC3EF9DFFCE
:060AD200EE9CFED3EF22B2
:02173300A90704
:10173500AE3CAF3D8F828E83A3E064037017AD018D
:1017450019ED7001228F828E83E07C002FFDEC3E27
:08175500FEAF0580DFE4FEFF9A
:01175D002269
:1014DD00E4FEAC35AD368D828C83A3E06402702DB5
:1014ED00AB060EEBB50705AF05AE04228D828C83DE
:1014FD00A3A3E0F530A3E0F5316230E5306231E5CC
:10150D003162302DFBE5303CFCAD0380C9E4FEFFBC
:01151D0022AB
:03000000020E5994
:0C0E5900787FE4F6D8FD75814A020EA0F7
:10008000E709F608DFFA8046E709F208DFFA803E62
:1000900088828C83E709F0A3DFFA8032E309F6084F
:1000A000DFFA8078E309F208DFFA807088828C83B7
:1000B000E309F0A3DFFA806489828A83E0A3F6086B
:1000C000DFFA805889828A83E0A3F208DFFA804C45
:1000D00080D280FA80C680D4806980F2803380101C
:1000E00080A680EA809A80A880DA80E280CA803385
:1000F00089828A83ECFAE493A3C8C582C8CCC583FD
:10010000CCF0A3C8C582C8CCC583CCDFE9DEE780CC
:100110000D89828A83E493A3F608DFF9ECFAA9F04B
:10012000EDFB2289828A83ECFAE0A3C8C582C8CCA1
:10013000C583CCF0A3C8C582C8CCC583CCDFEADEBA
:10014000E880DB89828A83E493A3F208DFF980CC1C
:1001500088F0EF60010E4E60C388F0ED2402B40415
:100160000050B9F582EB2402B4040050AF232345BC
:0601700082239000D07311
:10017600BB010689828A83E0225002E722BBFE0287
:09018600E32289828A83E49322BA
:10018F00BB010CE58229F582E5833AF583E0225025
:10019F0006E92582F8E622BBFE06E92582F8E2226F
:0D01AF00E58229F582E5833AF583E4932289
:1001BC00BB010689828A83F0225002F722BBFE0122
:0201CC00F3221C
:1001CE00F8BB010DE58229F582E5833AF583E8F067
:1001DE00225006E92582C8F622BBFE05E92582C813
:0201EE00F222FB
:1001F000EF8DF0A4A8F0CF8CF0A428CE8DF0A42E23
:02020000FE22DC
:10020200BC000BBE0029EF8DF084FFADF022E4CCE0
:10021200F875F008EF2FFFEE33FEEC33FCEE9DECA9
:10022200984005FCEE9DFE0FD5F0E9E4CEFD22EDEF
:10023200F8F5F0EE8420D21CFEADF075F008EF2F39
:10024200FFED33FD4007985006D5F0F222C398FD2A
:050252000FD5F0EA22C7
:10025700C5F0F8A3E028F0C5F0F8E5821582700232
:060267001583E038F022CF
:10026D00A3F8E0C5F025F0F0E58215827002158344
:06027D00E0C838F0E822A1
:0D028300EF4BFFEE4AFEED49FDEC48FC227A
:10029000EB9FF5F0EA9E42F0E99D42F0E89C45F0C4
:0102A000223B
:1002A100E8600FECC313FCED13FDEE13FEEF13FF3B
:0302B100D8F1225F
:1002B400E8600FEFC333FFEE33FEED33FDEC33FCA8
:0302C400D8F1224C
:0C02C700E0FCA3E0FDA3E0FEA3E0FF22AA
:0C02D300E0F8A3E0F9A3E0FAA3E0FB22AE
:0C02DF00ECF0A3EDF0A3EEF0A3EFF02292
:0902EB00E6FB08E6FA08E6F92238
:1002F400FAE6FB0808E6F925F0F618E6CA3AF6220B
:09030400EBF608EAF608E9F6221E
:0C030D00E493FB740193FA740293F9224C
:10031900D083D082F8E4937012740193700DA3A373
:1003290093F8740193F5828883E473740293686087
:06033900EFA3A3A380DF87
:06033F008A838982E47349
:10034500EF4E6012EF60010EEDBB010B89828A83CF
:10035500F0A3DFFCDEFA2289F05007F709DFFCA9DC
:0C036500F022BBFEFCF309DFFCA9F02233
:100E6500021179E493A3F8E493A34003F68001F219
:100E750008DFF48029E493A3F85407240CC8C3338E
:100E8500C4540F4420C8834004F456800146F6DF5D
:100E9500E4800B0102040810204080901A0EE47EC5
:100EA500019360BCA3FF543F30E509541FFEE49352
:100EB500A360010ECF54C025E060A840B8E493A319
:100EC500FAE493A3F8E493A3C8C582C8CAC583CA44
:100ED500F0A3C8C582C8CAC583CADFE9DEE780BEFC
:011A140000D1
:00000001FF
